{
  "contractName": "Gameplay",
  "abi": [
    {
      "inputs": [
        {
          "internalType": "contract IERC20",
          "name": "_address",
          "type": "address"
        }
      ],
      "stateMutability": "nonpayable",
      "type": "constructor"
    },
    {
      "inputs": [],
      "name": "tokenAddress",
      "outputs": [
        {
          "internalType": "contract IERC20",
          "name": "",
          "type": "address"
        }
      ],
      "stateMutability": "view",
      "type": "function"
    },
    {
      "inputs": [
        {
          "internalType": "uint256",
          "name": "_amount",
          "type": "uint256"
        }
      ],
      "name": "entryTicket",
      "outputs": [],
      "stateMutability": "payable",
      "type": "function"
    },
    {
      "inputs": [],
      "name": "rewardWinnder",
      "outputs": [],
      "stateMutability": "payable",
      "type": "function"
    }
  ],
  "bytecode": "0x608060405234801561001057600080fd5b506040516106623803806106628339818101604052810190610032919061008d565b806000806101000a81548173ffffffffffffffffffffffffffffffffffffffff021916908373ffffffffffffffffffffffffffffffffffffffff16021790555050610111565b600081519050610087816100fa565b92915050565b60006020828403121561009f57600080fd5b60006100ad84828501610078565b91505092915050565b60006100c1826100da565b9050919050565b60006100d3826100b6565b9050919050565b600073ffffffffffffffffffffffffffffffffffffffff82169050919050565b610103816100c8565b811461010e57600080fd5b50565b610542806101206000396000f3fe6080604052600436106100345760003560e01c806308b47bcf146100395780639d76ea5814610043578063b655d29f1461006e575b600080fd5b61004161008a565b005b34801561004f57600080fd5b50610058610143565b60405161006591906103c0565b60405180910390f35b610088600480360381019061008391906102fb565b610167565b005b60008054906101000a900473ffffffffffffffffffffffffffffffffffffffff1673ffffffffffffffffffffffffffffffffffffffff1663a9059cbb336801158e460913d000006040518363ffffffff1660e01b81526004016100ee929190610397565b602060405180830381600087803b15801561010857600080fd5b505af115801561011c573d6000803e3d6000fd5b505050506040513d601f19601f8201168201806040525081019061014091906102d2565b50565b60008054906101000a900473ffffffffffffffffffffffffffffffffffffffff1681565b60008054906101000a900473ffffffffffffffffffffffffffffffffffffffff1673ffffffffffffffffffffffffffffffffffffffff166323b872dd3330846040518463ffffffff1660e01b81526004016101c493929190610360565b602060405180830381600087803b1580156101de57600080fd5b505af11580156101f2573d6000803e3d6000fd5b505050506040513d601f19601f8201168201806040525081019061021691906102d2565b5080600160003373ffffffffffffffffffffffffffffffffffffffff1673ffffffffffffffffffffffffffffffffffffffff1681526020019081526020016000205461026291906103db565b600160003373ffffffffffffffffffffffffffffffffffffffff1673ffffffffffffffffffffffffffffffffffffffff1681526020019081526020016000208190555050565b6000815190506102b7816104de565b92915050565b6000813590506102cc816104f5565b92915050565b6000602082840312156102e457600080fd5b60006102f2848285016102a8565b91505092915050565b60006020828403121561030d57600080fd5b600061031b848285016102bd565b91505092915050565b61032d81610431565b82525050565b61033c81610479565b82525050565b61034b8161049d565b82525050565b61035a8161046f565b82525050565b60006060820190506103756000830186610324565b6103826020830185610324565b61038f6040830184610351565b949350505050565b60006040820190506103ac6000830185610324565b6103b96020830184610342565b9392505050565b60006020820190506103d56000830184610333565b92915050565b60006103e68261046f565b91506103f18361046f565b9250827fffffffffffffffffffffffffffffffffffffffffffffffffffffffffffffffff03821115610426576104256104af565b5b828201905092915050565b600061043c8261044f565b9050919050565b60008115159050919050565b600073ffffffffffffffffffffffffffffffffffffffff82169050919050565b6000819050919050565b60006104848261048b565b9050919050565b60006104968261044f565b9050919050565b60006104a88261046f565b9050919050565b7f4e487b7100000000000000000000000000000000000000000000000000000000600052601160045260246000fd5b6104e781610443565b81146104f257600080fd5b50565b6104fe8161046f565b811461050957600080fd5b5056fea2646970667358221220a1f9c51be55276db062553878ad5f815793b110773810b36339d4cf4284fe7cc64736f6c63430008000033",
  "immutableReferences": {},
  "source": "pragma solidity ^0.8.0;\n\nimport \"@openzeppelin/contracts/token/ERC20/IERC20.sol\";\n\ncontract Gameplay {\n    IERC20 public tokenAddress;\n    mapping(address => uint256) gameplayLedger;\n    mapping(address => uint256) playersClaim;\n    \n    constructor (IERC20 _address) {\n       tokenAddress = _address; \n    }\n    \n    function entryTicket(uint256 _amount) public payable {\n        tokenAddress.transferFrom(msg.sender, address(this), _amount);\n        gameplayLedger[msg.sender] = gameplayLedger[msg.sender] + _amount;\n    }\n    \n    // need to add IPFS data mapping for access control\n    function rewardWinnder() public payable {\n        tokenAddress.transfer(msg.sender, 20000000000000000000);\n    }\n}",
  "sourcePath": "/Users/sagarbehara/Work/Dungeon/Collectable-Quest/src/contracts/gameplay.sol",
  "compiler": {
    "name": "solc",
    "version": "0.8.0+commit.c7dfd78e.Emscripten.clang"
  },
  "schemaVersion": "3.4.1",
  "updatedAt": "2021-11-14T09:35:53.623Z",
  "devdoc": {
    "kind": "dev",
    "methods": {},
    "version": 1
  },
  "userdoc": {
    "kind": "user",
    "methods": {},
    "version": 1
  }
}