{
  "contractName": "Gold",
  "abi": [
    {
      "inputs": [],
      "stateMutability": "nonpayable",
      "type": "constructor"
    },
    {
      "anonymous": false,
      "inputs": [
        {
          "indexed": true,
          "internalType": "address",
          "name": "owner",
          "type": "address"
        },
        {
          "indexed": true,
          "internalType": "address",
          "name": "spender",
          "type": "address"
        },
        {
          "indexed": false,
          "internalType": "uint256",
          "name": "value",
          "type": "uint256"
        }
      ],
      "name": "Approval",
      "type": "event"
    },
    {
      "anonymous": false,
      "inputs": [
        {
          "indexed": true,
          "internalType": "address",
          "name": "from",
          "type": "address"
        },
        {
          "indexed": true,
          "internalType": "address",
          "name": "to",
          "type": "address"
        },
        {
          "indexed": false,
          "internalType": "uint256",
          "name": "value",
          "type": "uint256"
        }
      ],
      "name": "Transfer",
      "type": "event"
    },
    {
      "inputs": [
        {
          "internalType": "address",
          "name": "owner",
          "type": "address"
        },
        {
          "internalType": "address",
          "name": "spender",
          "type": "address"
        }
      ],
      "name": "allowance",
      "outputs": [
        {
          "internalType": "uint256",
          "name": "",
          "type": "uint256"
        }
      ],
      "stateMutability": "view",
      "type": "function",
      "constant": true
    },
    {
      "inputs": [
        {
          "internalType": "address",
          "name": "spender",
          "type": "address"
        },
        {
          "internalType": "uint256",
          "name": "amount",
          "type": "uint256"
        }
      ],
      "name": "approve",
      "outputs": [
        {
          "internalType": "bool",
          "name": "",
          "type": "bool"
        }
      ],
      "stateMutability": "nonpayable",
      "type": "function"
    },
    {
      "inputs": [
        {
          "internalType": "address",
          "name": "account",
          "type": "address"
        }
      ],
      "name": "balanceOf",
      "outputs": [
        {
          "internalType": "uint256",
          "name": "",
          "type": "uint256"
        }
      ],
      "stateMutability": "view",
      "type": "function",
      "constant": true
    },
    {
      "inputs": [],
      "name": "decimals",
      "outputs": [
        {
          "internalType": "uint8",
          "name": "",
          "type": "uint8"
        }
      ],
      "stateMutability": "view",
      "type": "function",
      "constant": true
    },
    {
      "inputs": [
        {
          "internalType": "address",
          "name": "spender",
          "type": "address"
        },
        {
          "internalType": "uint256",
          "name": "subtractedValue",
          "type": "uint256"
        }
      ],
      "name": "decreaseAllowance",
      "outputs": [
        {
          "internalType": "bool",
          "name": "",
          "type": "bool"
        }
      ],
      "stateMutability": "nonpayable",
      "type": "function"
    },
    {
      "inputs": [
        {
          "internalType": "address",
          "name": "spender",
          "type": "address"
        },
        {
          "internalType": "uint256",
          "name": "addedValue",
          "type": "uint256"
        }
      ],
      "name": "increaseAllowance",
      "outputs": [
        {
          "internalType": "bool",
          "name": "",
          "type": "bool"
        }
      ],
      "stateMutability": "nonpayable",
      "type": "function"
    },
    {
      "inputs": [],
      "name": "name",
      "outputs": [
        {
          "internalType": "string",
          "name": "",
          "type": "string"
        }
      ],
      "stateMutability": "view",
      "type": "function",
      "constant": true
    },
    {
      "inputs": [],
      "name": "symbol",
      "outputs": [
        {
          "internalType": "string",
          "name": "",
          "type": "string"
        }
      ],
      "stateMutability": "view",
      "type": "function",
      "constant": true
    },
    {
      "inputs": [],
      "name": "totalSupply",
      "outputs": [
        {
          "internalType": "uint256",
          "name": "",
          "type": "uint256"
        }
      ],
      "stateMutability": "view",
      "type": "function",
      "constant": true
    },
    {
      "inputs": [
        {
          "internalType": "address",
          "name": "recipient",
          "type": "address"
        },
        {
          "internalType": "uint256",
          "name": "amount",
          "type": "uint256"
        }
      ],
      "name": "transfer",
      "outputs": [
        {
          "internalType": "bool",
          "name": "",
          "type": "bool"
        }
      ],
      "stateMutability": "nonpayable",
      "type": "function"
    },
    {
      "inputs": [
        {
          "internalType": "address",
          "name": "sender",
          "type": "address"
        },
        {
          "internalType": "address",
          "name": "recipient",
          "type": "address"
        },
        {
          "internalType": "uint256",
          "name": "amount",
          "type": "uint256"
        }
      ],
      "name": "transferFrom",
      "outputs": [
        {
          "internalType": "bool",
          "name": "",
          "type": "bool"
        }
      ],
      "stateMutability": "nonpayable",
      "type": "function"
    },
    {
      "inputs": [],
      "name": "faucet",
      "outputs": [],
      "stateMutability": "nonpayable",
      "type": "function"
    }
  ],
  "bytecode": "0x60806040523480156200001157600080fd5b506040518060400160405280600481526020017f474f4c44000000000000000000000000000000000000000000000000000000008152506040518060400160405280600381526020017f474c44000000000000000000000000000000000000000000000000000000000081525081600390805190602001906200009692919062000286565b508060049080519060200190620000af92919062000286565b505050620000f433620000c7620000fa60201b60201c565b60ff16600a620000d8919062000491565b620f4240620000e89190620005ce565b6200010360201b60201c565b620006da565b60006012905090565b600073ffffffffffffffffffffffffffffffffffffffff168273ffffffffffffffffffffffffffffffffffffffff16141562000176576040517f08c379a00000000000000000000000000000000000000000000000000000000081526004016200016d9062000389565b60405180910390fd5b6200018a600083836200027c60201b60201c565b80600260008282546200019e9190620003d9565b92505081905550806000808473ffffffffffffffffffffffffffffffffffffffff1673ffffffffffffffffffffffffffffffffffffffff1681526020019081526020016000206000828254620001f59190620003d9565b925050819055508173ffffffffffffffffffffffffffffffffffffffff16600073ffffffffffffffffffffffffffffffffffffffff167fddf252ad1be2c89b69c2b068fc378daa952ba7f163c4a11628f55a4df523b3ef836040516200025c9190620003ab565b60405180910390a362000278600083836200028160201b60201c565b5050565b505050565b505050565b828054620002949062000639565b90600052602060002090601f016020900481019282620002b8576000855562000304565b82601f10620002d357805160ff191683800117855562000304565b8280016001018555821562000304579182015b8281111562000303578251825591602001919060010190620002e6565b5b50905062000313919062000317565b5090565b5b808211156200033257600081600090555060010162000318565b5090565b600062000345601f83620003c8565b91507f45524332303a206d696e7420746f20746865207a65726f2061646472657373006000830152602082019050919050565b62000383816200062f565b82525050565b60006020820190508181036000830152620003a48162000336565b9050919050565b6000602082019050620003c2600083018462000378565b92915050565b600082825260208201905092915050565b6000620003e6826200062f565b9150620003f3836200062f565b9250827fffffffffffffffffffffffffffffffffffffffffffffffffffffffffffffffff038211156200042b576200042a6200066f565b5b828201905092915050565b6000808291508390505b6001851115620004885780860481111562000460576200045f6200066f565b5b6001851615620004705780820291505b80810290506200048085620006cd565b945062000440565b94509492505050565b60006200049e826200062f565b9150620004ab836200062f565b9250620004da7fffffffffffffffffffffffffffffffffffffffffffffffffffffffffffffffff8484620004e2565b905092915050565b600082620004f45760019050620005c7565b81620005045760009050620005c7565b81600181146200051d576002811462000528576200055e565b6001915050620005c7565b60ff8411156200053d576200053c6200066f565b5b8360020a9150848211156200055757620005566200066f565b5b50620005c7565b5060208310610133831016604e8410600b8410161715620005985782820a9050838111156200059257620005916200066f565b5b620005c7565b620005a7848484600162000436565b92509050818404811115620005c157620005c06200066f565b5b81810290505b9392505050565b6000620005db826200062f565b9150620005e8836200062f565b9250817fffffffffffffffffffffffffffffffffffffffffffffffffffffffffffffffff04831182151516156200062457620006236200066f565b5b828202905092915050565b6000819050919050565b600060028204905060018216806200065257607f821691505b602082108114156200066957620006686200069e565b5b50919050565b7f4e487b7100000000000000000000000000000000000000000000000000000000600052601160045260246000fd5b7f4e487b7100000000000000000000000000000000000000000000000000000000600052602260045260246000fd5b60008160011c9050919050565b61171c80620006ea6000396000f3fe608060405234801561001057600080fd5b50600436106100b45760003560e01c806370a082311161007157806370a08231146101a357806395d89b41146101d3578063a457c2d7146101f1578063a9059cbb14610221578063dd62ed3e14610251578063de5f72fd14610281576100b4565b806306fdde03146100b9578063095ea7b3146100d757806318160ddd1461010757806323b872dd14610125578063313ce567146101555780633950935114610173575b600080fd5b6100c161028b565b6040516100ce91906111ed565b60405180910390f35b6100f160048036038101906100ec9190610e26565b61031d565b6040516100fe91906111d2565b60405180910390f35b61010f61033b565b60405161011c919061130f565b60405180910390f35b61013f600480360381019061013a9190610dd7565b610345565b60405161014c91906111d2565b60405180910390f35b61015d61043d565b60405161016a919061132a565b60405180910390f35b61018d60048036038101906101889190610e26565b610446565b60405161019a91906111d2565b60405180910390f35b6101bd60048036038101906101b89190610d72565b6104f2565b6040516101ca919061130f565b60405180910390f35b6101db61053a565b6040516101e891906111ed565b60405180910390f35b61020b60048036038101906102069190610e26565b6105cc565b60405161021891906111d2565b60405180910390f35b61023b60048036038101906102369190610e26565b6106b7565b60405161024891906111d2565b60405180910390f35b61026b60048036038101906102669190610d9b565b6106d5565b604051610278919061130f565b60405180910390f35b61028961075c565b005b60606003805461029a9061160a565b80601f01602080910402602001604051908101604052809291908181526020018280546102c69061160a565b80156103135780601f106102e857610100808354040283529160200191610313565b820191906000526020600020905b8154815290600101906020018083116102f657829003601f168201915b5050505050905090565b600061033161032a61078a565b8484610792565b6001905092915050565b6000600254905090565b600061035284848461095d565b6000600160008673ffffffffffffffffffffffffffffffffffffffff1673ffffffffffffffffffffffffffffffffffffffff168152602001908152602001600020600061039d61078a565b73ffffffffffffffffffffffffffffffffffffffff1673ffffffffffffffffffffffffffffffffffffffff1681526020019081526020016000205490508281101561041d576040517f08c379a00000000000000000000000000000000000000000000000000000000081526004016104149061126f565b60405180910390fd5b6104318561042961078a565b858403610792565b60019150509392505050565b60006012905090565b60006104e861045361078a565b84846001600061046161078a565b73ffffffffffffffffffffffffffffffffffffffff1673ffffffffffffffffffffffffffffffffffffffff16815260200190815260200160002060008873ffffffffffffffffffffffffffffffffffffffff1673ffffffffffffffffffffffffffffffffffffffff168152602001908152602001600020546104e39190611361565b610792565b6001905092915050565b60008060008373ffffffffffffffffffffffffffffffffffffffff1673ffffffffffffffffffffffffffffffffffffffff168152602001908152602001600020549050919050565b6060600480546105499061160a565b80601f01602080910402602001604051908101604052809291908181526020018280546105759061160a565b80156105c25780601f10610597576101008083540402835291602001916105c2565b820191906000526020600020905b8154815290600101906020018083116105a557829003601f168201915b5050505050905090565b600080600160006105db61078a565b73ffffffffffffffffffffffffffffffffffffffff1673ffffffffffffffffffffffffffffffffffffffff16815260200190815260200160002060008573ffffffffffffffffffffffffffffffffffffffff1673ffffffffffffffffffffffffffffffffffffffff16815260200190815260200160002054905082811015610698576040517f08c379a000000000000000000000000000000000000000000000000000000000815260040161068f906112cf565b60405180910390fd5b6106ac6106a361078a565b85858403610792565b600191505092915050565b60006106cb6106c461078a565b848461095d565b6001905092915050565b6000600160008473ffffffffffffffffffffffffffffffffffffffff1673ffffffffffffffffffffffffffffffffffffffff16815260200190815260200160002060008373ffffffffffffffffffffffffffffffffffffffff1673ffffffffffffffffffffffffffffffffffffffff16815260200190815260200160002054905092915050565b6107883361076861043d565b60ff16600a610777919061140a565b60646107839190611528565b610bde565b565b600033905090565b600073ffffffffffffffffffffffffffffffffffffffff168373ffffffffffffffffffffffffffffffffffffffff161415610802576040517f08c379a00000000000000000000000000000000000000000000000000000000081526004016107f9906112af565b60405180910390fd5b600073ffffffffffffffffffffffffffffffffffffffff168273ffffffffffffffffffffffffffffffffffffffff161415610872576040517f08c379a00000000000000000000000000000000000000000000000000000000081526004016108699061122f565b60405180910390fd5b80600160008573ffffffffffffffffffffffffffffffffffffffff1673ffffffffffffffffffffffffffffffffffffffff16815260200190815260200160002060008473ffffffffffffffffffffffffffffffffffffffff1673ffffffffffffffffffffffffffffffffffffffff168152602001908152602001600020819055508173ffffffffffffffffffffffffffffffffffffffff168373ffffffffffffffffffffffffffffffffffffffff167f8c5be1e5ebec7d5bd14f71427d1e84f3dd0314c0f7b2291e5b200ac8c7c3b92583604051610950919061130f565b60405180910390a3505050565b600073ffffffffffffffffffffffffffffffffffffffff168373ffffffffffffffffffffffffffffffffffffffff1614156109cd576040517f08c379a00000000000000000000000000000000000000000000000000000000081526004016109c49061128f565b60405180910390fd5b600073ffffffffffffffffffffffffffffffffffffffff168273ffffffffffffffffffffffffffffffffffffffff161415610a3d576040517f08c379a0000000000000000000000000000000000000000000000000000000008152600401610a349061120f565b60405180910390fd5b610a48838383610d3e565b60008060008573ffffffffffffffffffffffffffffffffffffffff1673ffffffffffffffffffffffffffffffffffffffff16815260200190815260200160002054905081811015610ace576040517f08c379a0000000000000000000000000000000000000000000000000000000008152600401610ac59061124f565b60405180910390fd5b8181036000808673ffffffffffffffffffffffffffffffffffffffff1673ffffffffffffffffffffffffffffffffffffffff16815260200190815260200160002081905550816000808573ffffffffffffffffffffffffffffffffffffffff1673ffffffffffffffffffffffffffffffffffffffff1681526020019081526020016000206000828254610b619190611361565b925050819055508273ffffffffffffffffffffffffffffffffffffffff168473ffffffffffffffffffffffffffffffffffffffff167fddf252ad1be2c89b69c2b068fc378daa952ba7f163c4a11628f55a4df523b3ef84604051610bc5919061130f565b60405180910390a3610bd8848484610d43565b50505050565b600073ffffffffffffffffffffffffffffffffffffffff168273ffffffffffffffffffffffffffffffffffffffff161415610c4e576040517f08c379a0000000000000000000000000000000000000000000000000000000008152600401610c45906112ef565b60405180910390fd5b610c5a60008383610d3e565b8060026000828254610c6c9190611361565b92505081905550806000808473ffffffffffffffffffffffffffffffffffffffff1673ffffffffffffffffffffffffffffffffffffffff1681526020019081526020016000206000828254610cc19190611361565b925050819055508173ffffffffffffffffffffffffffffffffffffffff16600073ffffffffffffffffffffffffffffffffffffffff167fddf252ad1be2c89b69c2b068fc378daa952ba7f163c4a11628f55a4df523b3ef83604051610d26919061130f565b60405180910390a3610d3a60008383610d43565b5050565b505050565b505050565b600081359050610d57816116b8565b92915050565b600081359050610d6c816116cf565b92915050565b600060208284031215610d8457600080fd5b6000610d9284828501610d48565b91505092915050565b60008060408385031215610dae57600080fd5b6000610dbc85828601610d48565b9250506020610dcd85828601610d48565b9150509250929050565b600080600060608486031215610dec57600080fd5b6000610dfa86828701610d48565b9350506020610e0b86828701610d48565b9250506040610e1c86828701610d5d565b9150509250925092565b60008060408385031215610e3957600080fd5b6000610e4785828601610d48565b9250506020610e5885828601610d5d565b9150509250929050565b610e6b81611594565b82525050565b6000610e7c82611345565b610e868185611350565b9350610e968185602086016115d7565b610e9f8161169a565b840191505092915050565b6000610eb7602383611350565b91507f45524332303a207472616e7366657220746f20746865207a65726f206164647260008301527f65737300000000000000000000000000000000000000000000000000000000006020830152604082019050919050565b6000610f1d602283611350565b91507f45524332303a20617070726f766520746f20746865207a65726f20616464726560008301527f73730000000000000000000000000000000000000000000000000000000000006020830152604082019050919050565b6000610f83602683611350565b91507f45524332303a207472616e7366657220616d6f756e742065786365656473206260008301527f616c616e636500000000000000000000000000000000000000000000000000006020830152604082019050919050565b6000610fe9602883611350565b91507f45524332303a207472616e7366657220616d6f756e742065786365656473206160008301527f6c6c6f77616e63650000000000000000000000000000000000000000000000006020830152604082019050919050565b600061104f602583611350565b91507f45524332303a207472616e736665722066726f6d20746865207a65726f20616460008301527f64726573730000000000000000000000000000000000000000000000000000006020830152604082019050919050565b60006110b5602483611350565b91507f45524332303a20617070726f76652066726f6d20746865207a65726f2061646460008301527f72657373000000000000000000000000000000000000000000000000000000006020830152604082019050919050565b600061111b602583611350565b91507f45524332303a2064656372656173656420616c6c6f77616e63652062656c6f7760008301527f207a65726f0000000000000000000000000000000000000000000000000000006020830152604082019050919050565b6000611181601f83611350565b91507f45524332303a206d696e7420746f20746865207a65726f2061646472657373006000830152602082019050919050565b6111bd816115c0565b82525050565b6111cc816115ca565b82525050565b60006020820190506111e76000830184610e62565b92915050565b600060208201905081810360008301526112078184610e71565b905092915050565b6000602082019050818103600083015261122881610eaa565b9050919050565b6000602082019050818103600083015261124881610f10565b9050919050565b6000602082019050818103600083015261126881610f76565b9050919050565b6000602082019050818103600083015261128881610fdc565b9050919050565b600060208201905081810360008301526112a881611042565b9050919050565b600060208201905081810360008301526112c8816110a8565b9050919050565b600060208201905081810360008301526112e88161110e565b9050919050565b6000602082019050818103600083015261130881611174565b9050919050565b600060208201905061132460008301846111b4565b92915050565b600060208201905061133f60008301846111c3565b92915050565b600081519050919050565b600082825260208201905092915050565b600061136c826115c0565b9150611377836115c0565b9250827fffffffffffffffffffffffffffffffffffffffffffffffffffffffffffffffff038211156113ac576113ab61163c565b5b828201905092915050565b6000808291508390505b6001851115611401578086048111156113dd576113dc61163c565b5b60018516156113ec5780820291505b80810290506113fa856116ab565b94506113c1565b94509492505050565b6000611415826115c0565b9150611420836115c0565b925061144d7fffffffffffffffffffffffffffffffffffffffffffffffffffffffffffffffff8484611455565b905092915050565b6000826114655760019050611521565b816114735760009050611521565b81600181146114895760028114611493576114c2565b6001915050611521565b60ff8411156114a5576114a461163c565b5b8360020a9150848211156114bc576114bb61163c565b5b50611521565b5060208310610133831016604e8410600b84101617156114f75782820a9050838111156114f2576114f161163c565b5b611521565b61150484848460016113b7565b9250905081840481111561151b5761151a61163c565b5b81810290505b9392505050565b6000611533826115c0565b915061153e836115c0565b9250817fffffffffffffffffffffffffffffffffffffffffffffffffffffffffffffffff04831182151516156115775761157661163c565b5b828202905092915050565b600061158d826115a0565b9050919050565b60008115159050919050565b600073ffffffffffffffffffffffffffffffffffffffff82169050919050565b6000819050919050565b600060ff82169050919050565b60005b838110156115f55780820151818401526020810190506115da565b83811115611604576000848401525b50505050565b6000600282049050600182168061162257607f821691505b602082108114156116365761163561166b565b5b50919050565b7f4e487b7100000000000000000000000000000000000000000000000000000000600052601160045260246000fd5b7f4e487b7100000000000000000000000000000000000000000000000000000000600052602260045260246000fd5b6000601f19601f8301169050919050565b60008160011c9050919050565b6116c181611582565b81146116cc57600080fd5b50565b6116d8816115c0565b81146116e357600080fd5b5056fea2646970667358221220e8a7afc5ee5a9f5cc6e8e83629cca9398e9e2a0898a6639e637089cf21eeaf8064736f6c63430008000033",
  "immutableReferences": {},
  "source": "pragma solidity ^0.8.0;\n\nimport \"@openzeppelin/contracts/token/ERC20/ERC20.sol\";\n\ncontract Gold is ERC20 {\n\n    constructor () ERC20(\"GOLD\", \"GLD\") {\n        _mint(msg.sender, 1000000 * (10 ** uint256(decimals())));\n    }\n    \n    function faucet() public {\n        _mint(msg.sender, 100 * (10 ** uint256(decimals())));\n    }\n}",
  "sourcePath": "/Users/sagarbehara/Work/Dungeon/Collectable-Quest/src/contracts/gold.sol",
  "compiler": {
    "name": "solc",
    "version": "0.8.0+commit.c7dfd78e.Emscripten.clang"
  },
  "schemaVersion": "3.4.1",
  "updatedAt": "2021-11-27T22:14:27.336Z",
  "networkType": "ethereum",
  "devdoc": {
    "kind": "dev",
    "methods": {
      "allowance(address,address)": {
        "details": "See {IERC20-allowance}."
      },
      "approve(address,uint256)": {
        "details": "See {IERC20-approve}. Requirements: - `spender` cannot be the zero address."
      },
      "balanceOf(address)": {
        "details": "See {IERC20-balanceOf}."
      },
      "decimals()": {
        "details": "Returns the number of decimals used to get its user representation. For example, if `decimals` equals `2`, a balance of `505` tokens should be displayed to a user as `5.05` (`505 / 10 ** 2`). Tokens usually opt for a value of 18, imitating the relationship between Ether and Wei. This is the value {ERC20} uses, unless this function is overridden; NOTE: This information is only used for _display_ purposes: it in no way affects any of the arithmetic of the contract, including {IERC20-balanceOf} and {IERC20-transfer}."
      },
      "decreaseAllowance(address,uint256)": {
        "details": "Atomically decreases the allowance granted to `spender` by the caller. This is an alternative to {approve} that can be used as a mitigation for problems described in {IERC20-approve}. Emits an {Approval} event indicating the updated allowance. Requirements: - `spender` cannot be the zero address. - `spender` must have allowance for the caller of at least `subtractedValue`."
      },
      "increaseAllowance(address,uint256)": {
        "details": "Atomically increases the allowance granted to `spender` by the caller. This is an alternative to {approve} that can be used as a mitigation for problems described in {IERC20-approve}. Emits an {Approval} event indicating the updated allowance. Requirements: - `spender` cannot be the zero address."
      },
      "name()": {
        "details": "Returns the name of the token."
      },
      "symbol()": {
        "details": "Returns the symbol of the token, usually a shorter version of the name."
      },
      "totalSupply()": {
        "details": "See {IERC20-totalSupply}."
      },
      "transfer(address,uint256)": {
        "details": "See {IERC20-transfer}. Requirements: - `recipient` cannot be the zero address. - the caller must have a balance of at least `amount`."
      },
      "transferFrom(address,address,uint256)": {
        "details": "See {IERC20-transferFrom}. Emits an {Approval} event indicating the updated allowance. This is not required by the EIP. See the note at the beginning of {ERC20}. Requirements: - `sender` and `recipient` cannot be the zero address. - `sender` must have a balance of at least `amount`. - the caller must have allowance for ``sender``'s tokens of at least `amount`."
      }
    },
    "version": 1
  },
  "userdoc": {
    "kind": "user",
    "methods": {},
    "version": 1
  }
}