{
  "contractName": "NFTTrophy",
  "abi": [
    {
      "inputs": [
        {
          "internalType": "address",
          "name": "_VRFCoordinator",
          "type": "address"
        },
        {
          "internalType": "address",
          "name": "_LinkToken",
          "type": "address"
        },
        {
          "internalType": "bytes32",
          "name": "_keyHash",
          "type": "bytes32"
        }
      ],
      "stateMutability": "nonpayable",
      "type": "constructor"
    },
    {
      "anonymous": false,
      "inputs": [
        {
          "indexed": true,
          "internalType": "address",
          "name": "owner",
          "type": "address"
        },
        {
          "indexed": true,
          "internalType": "address",
          "name": "approved",
          "type": "address"
        },
        {
          "indexed": true,
          "internalType": "uint256",
          "name": "tokenId",
          "type": "uint256"
        }
      ],
      "name": "Approval",
      "type": "event"
    },
    {
      "anonymous": false,
      "inputs": [
        {
          "indexed": true,
          "internalType": "address",
          "name": "owner",
          "type": "address"
        },
        {
          "indexed": true,
          "internalType": "address",
          "name": "operator",
          "type": "address"
        },
        {
          "indexed": false,
          "internalType": "bool",
          "name": "approved",
          "type": "bool"
        }
      ],
      "name": "ApprovalForAll",
      "type": "event"
    },
    {
      "anonymous": false,
      "inputs": [
        {
          "indexed": true,
          "internalType": "address",
          "name": "from",
          "type": "address"
        },
        {
          "indexed": true,
          "internalType": "address",
          "name": "to",
          "type": "address"
        },
        {
          "indexed": true,
          "internalType": "uint256",
          "name": "tokenId",
          "type": "uint256"
        }
      ],
      "name": "Transfer",
      "type": "event"
    },
    {
      "inputs": [],
      "name": "Linktoken",
      "outputs": [
        {
          "internalType": "address",
          "name": "",
          "type": "address"
        }
      ],
      "stateMutability": "view",
      "type": "function",
      "constant": true
    },
    {
      "inputs": [],
      "name": "VRFCoordinator",
      "outputs": [
        {
          "internalType": "address",
          "name": "",
          "type": "address"
        }
      ],
      "stateMutability": "view",
      "type": "function",
      "constant": true
    },
    {
      "inputs": [],
      "name": "add",
      "outputs": [
        {
          "internalType": "address",
          "name": "",
          "type": "address"
        }
      ],
      "stateMutability": "view",
      "type": "function",
      "constant": true
    },
    {
      "inputs": [
        {
          "internalType": "address",
          "name": "to",
          "type": "address"
        },
        {
          "internalType": "uint256",
          "name": "tokenId",
          "type": "uint256"
        }
      ],
      "name": "approve",
      "outputs": [],
      "stateMutability": "nonpayable",
      "type": "function"
    },
    {
      "inputs": [
        {
          "internalType": "address",
          "name": "owner",
          "type": "address"
        }
      ],
      "name": "balanceOf",
      "outputs": [
        {
          "internalType": "uint256",
          "name": "",
          "type": "uint256"
        }
      ],
      "stateMutability": "view",
      "type": "function",
      "constant": true
    },
    {
      "inputs": [
        {
          "internalType": "uint256",
          "name": "tokenId",
          "type": "uint256"
        }
      ],
      "name": "getApproved",
      "outputs": [
        {
          "internalType": "address",
          "name": "",
          "type": "address"
        }
      ],
      "stateMutability": "view",
      "type": "function",
      "constant": true
    },
    {
      "inputs": [
        {
          "internalType": "address",
          "name": "owner",
          "type": "address"
        },
        {
          "internalType": "address",
          "name": "operator",
          "type": "address"
        }
      ],
      "name": "isApprovedForAll",
      "outputs": [
        {
          "internalType": "bool",
          "name": "",
          "type": "bool"
        }
      ],
      "stateMutability": "view",
      "type": "function",
      "constant": true
    },
    {
      "inputs": [],
      "name": "keyHash",
      "outputs": [
        {
          "internalType": "bytes32",
          "name": "",
          "type": "bytes32"
        }
      ],
      "stateMutability": "view",
      "type": "function",
      "constant": true
    },
    {
      "inputs": [],
      "name": "name",
      "outputs": [
        {
          "internalType": "string",
          "name": "",
          "type": "string"
        }
      ],
      "stateMutability": "view",
      "type": "function",
      "constant": true
    },
    {
      "inputs": [
        {
          "internalType": "uint256",
          "name": "tokenId",
          "type": "uint256"
        }
      ],
      "name": "ownerOf",
      "outputs": [
        {
          "internalType": "address",
          "name": "",
          "type": "address"
        }
      ],
      "stateMutability": "view",
      "type": "function",
      "constant": true
    },
    {
      "inputs": [],
      "name": "randomResult",
      "outputs": [
        {
          "internalType": "uint256",
          "name": "",
          "type": "uint256"
        }
      ],
      "stateMutability": "view",
      "type": "function",
      "constant": true
    },
    {
      "inputs": [
        {
          "internalType": "bytes32",
          "name": "requestId",
          "type": "bytes32"
        },
        {
          "internalType": "uint256",
          "name": "randomness",
          "type": "uint256"
        }
      ],
      "name": "rawFulfillRandomness",
      "outputs": [],
      "stateMutability": "nonpayable",
      "type": "function"
    },
    {
      "inputs": [
        {
          "internalType": "address",
          "name": "from",
          "type": "address"
        },
        {
          "internalType": "address",
          "name": "to",
          "type": "address"
        },
        {
          "internalType": "uint256",
          "name": "tokenId",
          "type": "uint256"
        }
      ],
      "name": "safeTransferFrom",
      "outputs": [],
      "stateMutability": "nonpayable",
      "type": "function"
    },
    {
      "inputs": [
        {
          "internalType": "address",
          "name": "from",
          "type": "address"
        },
        {
          "internalType": "address",
          "name": "to",
          "type": "address"
        },
        {
          "internalType": "uint256",
          "name": "tokenId",
          "type": "uint256"
        },
        {
          "internalType": "bytes",
          "name": "_data",
          "type": "bytes"
        }
      ],
      "name": "safeTransferFrom",
      "outputs": [],
      "stateMutability": "nonpayable",
      "type": "function"
    },
    {
      "inputs": [
        {
          "internalType": "address",
          "name": "operator",
          "type": "address"
        },
        {
          "internalType": "bool",
          "name": "approved",
          "type": "bool"
        }
      ],
      "name": "setApprovalForAll",
      "outputs": [],
      "stateMutability": "nonpayable",
      "type": "function"
    },
    {
      "inputs": [
        {
          "internalType": "bytes4",
          "name": "interfaceId",
          "type": "bytes4"
        }
      ],
      "name": "supportsInterface",
      "outputs": [
        {
          "internalType": "bool",
          "name": "",
          "type": "bool"
        }
      ],
      "stateMutability": "view",
      "type": "function",
      "constant": true
    },
    {
      "inputs": [],
      "name": "symbol",
      "outputs": [
        {
          "internalType": "string",
          "name": "",
          "type": "string"
        }
      ],
      "stateMutability": "view",
      "type": "function",
      "constant": true
    },
    {
      "inputs": [
        {
          "internalType": "uint256",
          "name": "tokenId",
          "type": "uint256"
        }
      ],
      "name": "tokenURI",
      "outputs": [
        {
          "internalType": "string",
          "name": "",
          "type": "string"
        }
      ],
      "stateMutability": "view",
      "type": "function",
      "constant": true
    },
    {
      "inputs": [],
      "name": "tokensCount",
      "outputs": [
        {
          "internalType": "uint256",
          "name": "",
          "type": "uint256"
        }
      ],
      "stateMutability": "view",
      "type": "function",
      "constant": true
    },
    {
      "inputs": [
        {
          "internalType": "address",
          "name": "from",
          "type": "address"
        },
        {
          "internalType": "address",
          "name": "to",
          "type": "address"
        },
        {
          "internalType": "uint256",
          "name": "tokenId",
          "type": "uint256"
        }
      ],
      "name": "transferFrom",
      "outputs": [],
      "stateMutability": "nonpayable",
      "type": "function"
    },
    {
      "inputs": [
        {
          "internalType": "uint256",
          "name": "",
          "type": "uint256"
        }
      ],
      "name": "trophies",
      "outputs": [
        {
          "internalType": "uint256",
          "name": "tokenId",
          "type": "uint256"
        },
        {
          "internalType": "uint256",
          "name": "rarity",
          "type": "uint256"
        },
        {
          "internalType": "uint256",
          "name": "worth",
          "type": "uint256"
        },
        {
          "internalType": "string",
          "name": "name",
          "type": "string"
        },
        {
          "internalType": "uint256",
          "name": "levelPass",
          "type": "uint256"
        },
        {
          "internalType": "string",
          "name": "image",
          "type": "string"
        }
      ],
      "stateMutability": "view",
      "type": "function",
      "constant": true
    },
    {
      "inputs": [
        {
          "internalType": "address",
          "name": "",
          "type": "address"
        },
        {
          "internalType": "uint256",
          "name": "",
          "type": "uint256"
        }
      ],
      "name": "usersNft",
      "outputs": [
        {
          "internalType": "uint256",
          "name": "tokenId",
          "type": "uint256"
        },
        {
          "internalType": "uint256",
          "name": "rarity",
          "type": "uint256"
        },
        {
          "internalType": "uint256",
          "name": "worth",
          "type": "uint256"
        },
        {
          "internalType": "string",
          "name": "name",
          "type": "string"
        },
        {
          "internalType": "uint256",
          "name": "levelPass",
          "type": "uint256"
        },
        {
          "internalType": "string",
          "name": "image",
          "type": "string"
        }
      ],
      "stateMutability": "view",
      "type": "function",
      "constant": true
    },
    {
      "inputs": [
        {
          "internalType": "address",
          "name": "",
          "type": "address"
        }
      ],
      "name": "usersNftCount",
      "outputs": [
        {
          "internalType": "uint256",
          "name": "",
          "type": "uint256"
        }
      ],
      "stateMutability": "view",
      "type": "function",
      "constant": true
    },
    {
      "inputs": [
        {
          "internalType": "uint256",
          "name": "userProvidedSeed",
          "type": "uint256"
        },
        {
          "internalType": "string",
          "name": "name",
          "type": "string"
        },
        {
          "internalType": "uint256",
          "name": "levelPass",
          "type": "uint256"
        },
        {
          "internalType": "address",
          "name": "walletAddress",
          "type": "address"
        },
        {
          "internalType": "string",
          "name": "_tokenURI",
          "type": "string"
        }
      ],
      "name": "requestNewRandomTrophy",
      "outputs": [
        {
          "internalType": "bytes32",
          "name": "",
          "type": "bytes32"
        }
      ],
      "stateMutability": "nonpayable",
      "type": "function"
    }
  ],
  "bytecode": "0x60c06040523480156200001157600080fd5b50604051620043d5380380620043d58339818101604052810190620000379190620002c8565b82826040518060400160405280600a81526020017f54726f70687943686172000000000000000000000000000000000000000000008152506040518060400160405280600381526020017f54525000000000000000000000000000000000000000000000000000000000008152508160009080519060200190620000bd929190620001ea565b508060019080519060200190620000d6929190620001ea565b5050508173ffffffffffffffffffffffffffffffffffffffff1660a08173ffffffffffffffffffffffffffffffffffffffff1660601b815250508073ffffffffffffffffffffffffffffffffffffffff1660808173ffffffffffffffffffffffffffffffffffffffff1660601b81525050505082600960006101000a81548173ffffffffffffffffffffffffffffffffffffffff021916908373ffffffffffffffffffffffffffffffffffffffff1602179055508060088190555081600c60006101000a81548173ffffffffffffffffffffffffffffffffffffffff021916908373ffffffffffffffffffffffffffffffffffffffff16021790555067016345785d8a0000600a81905550505050620003f5565b828054620001f8906200035c565b90600052602060002090601f0160209004810192826200021c576000855562000268565b82601f106200023757805160ff191683800117855562000268565b8280016001018555821562000268579182015b82811115620002675782518255916020019190600101906200024a565b5b5090506200027791906200027b565b5090565b5b80821115620002965760008160009055506001016200027c565b5090565b600081519050620002ab81620003c1565b92915050565b600081519050620002c281620003db565b92915050565b600080600060608486031215620002de57600080fd5b6000620002ee868287016200029a565b935050602062000301868287016200029a565b92505060406200031486828701620002b1565b9150509250925092565b60006200032b826200033c565b9050919050565b6000819050919050565b600073ffffffffffffffffffffffffffffffffffffffff82169050919050565b600060028204905060018216806200037557607f821691505b602082108114156200038c576200038b62000392565b5b50919050565b7f4e487b7100000000000000000000000000000000000000000000000000000000600052602260045260246000fd5b620003cc816200031e565b8114620003d857600080fd5b50565b620003e68162000332565b8114620003f257600080fd5b50565b60805160601c60a05160601c613fa66200042f60003960008181610c8d01526117e30152600081816108a301526117a70152613fa66000f3fe608060405234801561001057600080fd5b50600436106101585760003560e01c806361728f39116100c3578063a22cb4651161007c578063a22cb465146103f4578063a64ed8ba14610410578063b16741671461042e578063b88d4fde14610463578063c87b56dd1461047f578063e985e9c5146104af57610158565b806361728f39146103075780636352211e1461032557806370a082311461035557806394985ddd1461038557806395d89b41146103a1578063a06bb50f146103bf57610158565b806333b608631161011557806333b60863146102315780633edf2cd71461024f57806342619f661461027f57806342842e0e1461029d5780634f2be91f146102b957806354cbd4dd146102d757610158565b806301ffc9a71461015d57806306fdde031461018d57806307ed17e3146101ab578063081812fc146101c9578063095ea7b3146101f957806323b872dd14610215575b600080fd5b61017760048036038101906101729190612db0565b6104df565b6040516101849190613791565b60405180910390f35b6101956105c1565b6040516101a29190613835565b60405180910390f35b6101b3610653565b6040516101c091906136ec565b60405180910390f35b6101e360048036038101906101de9190612e02565b610679565b6040516101f091906136ec565b60405180910390f35b610213600480360381019061020e9190612d0f565b6106fe565b005b61022f600480360381019061022a9190612c09565b610816565b005b610239610876565b60405161024691906136ec565b60405180910390f35b61026960048036038101906102649190612e54565b61089c565b60405161027691906137ac565b60405180910390f35b610287610ab7565b6040516102949190613a97565b60405180910390f35b6102b760048036038101906102b29190612c09565b610abd565b005b6102c1610add565b6040516102ce91906136ec565b60405180910390f35b6102f160048036038101906102ec9190612ba4565b610b03565b6040516102fe9190613a97565b60405180910390f35b61030f610b1b565b60405161031c91906137ac565b60405180910390f35b61033f600480360381019061033a9190612e02565b610b21565b60405161034c91906136ec565b60405180910390f35b61036f600480360381019061036a9190612ba4565b610bd3565b60405161037c9190613a97565b60405180910390f35b61039f600480360381019061039a9190612d74565b610c8b565b005b6103a9610d27565b6040516103b69190613835565b60405180910390f35b6103d960048036038101906103d49190612e02565b610db9565b6040516103eb96959493929190613ab2565b60405180910390f35b61040e60048036038101906104099190612cd3565b610f15565b005b610418610f2b565b6040516104259190613a97565b60405180910390f35b61044860048036038101906104439190612d0f565b610f31565b60405161045a96959493929190613ab2565b60405180910390f35b61047d60048036038101906104789190612c58565b61108a565b005b61049960048036038101906104949190612e02565b6110ec565b6040516104a69190613835565b60405180910390f35b6104c960048036038101906104c49190612bcd565b61123e565b6040516104d69190613791565b60405180910390f35b60007f80ac58cd000000000000000000000000000000000000000000000000000000007bffffffffffffffffffffffffffffffffffffffffffffffffffffffff1916827bffffffffffffffffffffffffffffffffffffffffffffffffffffffff191614806105aa57507f5b5e139f000000000000000000000000000000000000000000000000000000007bffffffffffffffffffffffffffffffffffffffffffffffffffffffff1916827bffffffffffffffffffffffffffffffffffffffffffffffffffffffff1916145b806105ba57506105b9826112d2565b5b9050919050565b6060600080546105d090613d70565b80601f01602080910402602001604051908101604052809291908181526020018280546105fc90613d70565b80156106495780601f1061061e57610100808354040283529160200191610649565b820191906000526020600020905b81548152906001019060200180831161062c57829003601f168201915b5050505050905090565b600c60009054906101000a900473ffffffffffffffffffffffffffffffffffffffff1681565b60006106848261133c565b6106c3576040517f08c379a00000000000000000000000000000000000000000000000000000000081526004016106ba906139d7565b60405180910390fd5b6004600083815260200190815260200160002060009054906101000a900473ffffffffffffffffffffffffffffffffffffffff169050919050565b600061070982610b21565b90508073ffffffffffffffffffffffffffffffffffffffff168373ffffffffffffffffffffffffffffffffffffffff16141561077a576040517f08c379a000000000000000000000000000000000000000000000000000000000815260040161077190613a57565b60405180910390fd5b8073ffffffffffffffffffffffffffffffffffffffff166107996113a8565b73ffffffffffffffffffffffffffffffffffffffff1614806107c857506107c7816107c26113a8565b61123e565b5b610807576040517f08c379a00000000000000000000000000000000000000000000000000000000081526004016107fe90613917565b60405180910390fd5b61081183836113b0565b505050565b6108276108216113a8565b82611469565b610866576040517f08c379a000000000000000000000000000000000000000000000000000000000815260040161085d90613a77565b60405180910390fd5b610871838383611547565b505050565b600960009054906101000a900473ffffffffffffffffffffffffffffffffffffffff1681565b6000600a547f000000000000000000000000000000000000000000000000000000000000000073ffffffffffffffffffffffffffffffffffffffff166370a08231306040518263ffffffff1660e01b81526004016108fa91906136ec565b60206040518083038186803b15801561091257600080fd5b505afa158015610926573d6000803e3d6000fd5b505050506040513d601f19601f8201168201806040525081019061094a9190612e2b565b101561098b576040517f08c379a0000000000000000000000000000000000000000000000000000000008152600401610982906138d7565b60405180910390fd5b600061099c600854600a54896117a3565b9050856010600083815260200190815260200160002090805190602001906109c5929190612989565b50846011600083815260200190815260200160002081905550336012600083815260200190815260200160002060006101000a81548173ffffffffffffffffffffffffffffffffffffffff021916908373ffffffffffffffffffffffffffffffffffffffff160217905550836013600083815260200190815260200160002060006101000a81548173ffffffffffffffffffffffffffffffffffffffff021916908373ffffffffffffffffffffffffffffffffffffffff16021790555082601560008381526020019081526020016000209080519060200190610aa9929190612989565b508091505095945050505050565b600b5481565b610ad88383836040518060200160405280600081525061108a565b505050565b600e60009054906101000a900473ffffffffffffffffffffffffffffffffffffffff1681565b60176020528060005260406000206000915090505481565b60085481565b6000806002600084815260200190815260200160002060009054906101000a900473ffffffffffffffffffffffffffffffffffffffff169050600073ffffffffffffffffffffffffffffffffffffffff168173ffffffffffffffffffffffffffffffffffffffff161415610bca576040517f08c379a0000000000000000000000000000000000000000000000000000000008152600401610bc190613957565b60405180910390fd5b80915050919050565b60008073ffffffffffffffffffffffffffffffffffffffff168273ffffffffffffffffffffffffffffffffffffffff161415610c44576040517f08c379a0000000000000000000000000000000000000000000000000000000008152600401610c3b90613937565b60405180910390fd5b600360008373ffffffffffffffffffffffffffffffffffffffff1673ffffffffffffffffffffffffffffffffffffffff168152602001908152602001600020549050919050565b7f000000000000000000000000000000000000000000000000000000000000000073ffffffffffffffffffffffffffffffffffffffff163373ffffffffffffffffffffffffffffffffffffffff1614610d19576040517f08c379a0000000000000000000000000000000000000000000000000000000008152600401610d1090613a37565b60405180910390fd5b610d238282611904565b5050565b606060018054610d3690613d70565b80601f0160208091040260200160405190810160405280929190818152602001828054610d6290613d70565b8015610daf5780601f10610d8457610100808354040283529160200191610daf565b820191906000526020600020905b815481529060010190602001808311610d9257829003601f168201915b5050505050905090565b600f8181548110610dc957600080fd5b9060005260206000209060060201600091509050806000015490806001015490806002015490806003018054610dfe90613d70565b80601f0160208091040260200160405190810160405280929190818152602001828054610e2a90613d70565b8015610e775780601f10610e4c57610100808354040283529160200191610e77565b820191906000526020600020905b815481529060010190602001808311610e5a57829003601f168201915b505050505090806004015490806005018054610e9290613d70565b80601f0160208091040260200160405190810160405280929190818152602001828054610ebe90613d70565b8015610f0b5780601f10610ee057610100808354040283529160200191610f0b565b820191906000526020600020905b815481529060010190602001808311610eee57829003601f168201915b5050505050905086565b610f27610f206113a8565b838361207c565b5050565b600d5481565b601660205281600052604060002060205280600052604060002060009150915050806000015490806001015490806002015490806003018054610f7390613d70565b80601f0160208091040260200160405190810160405280929190818152602001828054610f9f90613d70565b8015610fec5780601f10610fc157610100808354040283529160200191610fec565b820191906000526020600020905b815481529060010190602001808311610fcf57829003601f168201915b50505050509080600401549080600501805461100790613d70565b80601f016020809104026020016040519081016040528092919081815260200182805461103390613d70565b80156110805780601f1061105557610100808354040283529160200191611080565b820191906000526020600020905b81548152906001019060200180831161106357829003601f168201915b5050505050905086565b61109b6110956113a8565b83611469565b6110da576040517f08c379a00000000000000000000000000000000000000000000000000000000081526004016110d190613a77565b60405180910390fd5b6110e6848484846121e9565b50505050565b60606110f78261133c565b611136576040517f08c379a000000000000000000000000000000000000000000000000000000000815260040161112d906139b7565b60405180910390fd5b600060066000848152602001908152602001600020805461115690613d70565b80601f016020809104026020016040519081016040528092919081815260200182805461118290613d70565b80156111cf5780601f106111a4576101008083540402835291602001916111cf565b820191906000526020600020905b8154815290600101906020018083116111b257829003601f168201915b5050505050905060006111e0612245565b90506000815114156111f6578192505050611239565b60008251111561122b5780826040516020016112139291906136c8565b60405160208183030381529060405292505050611239565b6112348461225c565b925050505b919050565b6000600560008473ffffffffffffffffffffffffffffffffffffffff1673ffffffffffffffffffffffffffffffffffffffff16815260200190815260200160002060008373ffffffffffffffffffffffffffffffffffffffff1673ffffffffffffffffffffffffffffffffffffffff16815260200190815260200160002060009054906101000a900460ff16905092915050565b60007f01ffc9a7000000000000000000000000000000000000000000000000000000007bffffffffffffffffffffffffffffffffffffffffffffffffffffffff1916827bffffffffffffffffffffffffffffffffffffffffffffffffffffffff1916149050919050565b60008073ffffffffffffffffffffffffffffffffffffffff166002600084815260200190815260200160002060009054906101000a900473ffffffffffffffffffffffffffffffffffffffff1673ffffffffffffffffffffffffffffffffffffffff1614159050919050565b600033905090565b816004600083815260200190815260200160002060006101000a81548173ffffffffffffffffffffffffffffffffffffffff021916908373ffffffffffffffffffffffffffffffffffffffff160217905550808273ffffffffffffffffffffffffffffffffffffffff1661142383610b21565b73ffffffffffffffffffffffffffffffffffffffff167f8c5be1e5ebec7d5bd14f71427d1e84f3dd0314c0f7b2291e5b200ac8c7c3b92560405160405180910390a45050565b60006114748261133c565b6114b3576040517f08c379a00000000000000000000000000000000000000000000000000000000081526004016114aa906138f7565b60405180910390fd5b60006114be83610b21565b90508073ffffffffffffffffffffffffffffffffffffffff168473ffffffffffffffffffffffffffffffffffffffff16148061152d57508373ffffffffffffffffffffffffffffffffffffffff1661151584610679565b73ffffffffffffffffffffffffffffffffffffffff16145b8061153e575061153d818561123e565b5b91505092915050565b8273ffffffffffffffffffffffffffffffffffffffff1661156782610b21565b73ffffffffffffffffffffffffffffffffffffffff16146115bd576040517f08c379a00000000000000000000000000000000000000000000000000000000081526004016115b4906139f7565b60405180910390fd5b600073ffffffffffffffffffffffffffffffffffffffff168273ffffffffffffffffffffffffffffffffffffffff16141561162d576040517f08c379a000000000000000000000000000000000000000000000000000000000815260040161162490613897565b60405180910390fd5b611638838383612303565b6116436000826113b0565b6001600360008573ffffffffffffffffffffffffffffffffffffffff1673ffffffffffffffffffffffffffffffffffffffff16815260200190815260200160002060008282546116939190613c7c565b925050819055506001600360008473ffffffffffffffffffffffffffffffffffffffff1673ffffffffffffffffffffffffffffffffffffffff16815260200190815260200160002060008282546116ea9190613bf5565b92505081905550816002600083815260200190815260200160002060006101000a81548173ffffffffffffffffffffffffffffffffffffffff021916908373ffffffffffffffffffffffffffffffffffffffff160217905550808273ffffffffffffffffffffffffffffffffffffffff168473ffffffffffffffffffffffffffffffffffffffff167fddf252ad1be2c89b69c2b068fc378daa952ba7f163c4a11628f55a4df523b3ef60405160405180910390a4505050565b60007f000000000000000000000000000000000000000000000000000000000000000073ffffffffffffffffffffffffffffffffffffffff16634000aea07f00000000000000000000000000000000000000000000000000000000000000008587866040516020016118169291906137c7565b6040516020818303038152906040526040518463ffffffff1660e01b815260040161184393929190613753565b602060405180830381600087803b15801561185d57600080fd5b505af1158015611871573d6000803e3d6000fd5b505050506040513d601f19601f820116820180604052508101906118959190612d4b565b5060006118b7858430600760008a815260200190815260200160002054612308565b9050600160076000878152602001908152602001600020546118d99190613bf5565b60076000878152602001908152602001600020819055506118fa8582612344565b9150509392505050565b6000600f805490509050600060648361191d9190613dff565b9050600060646103e8856119319190613dff565b61193b9190613c4b565b9050600f6040518060c0016040528085815260200184815260200183815260200160106000898152602001908152602001600020805461197a90613d70565b80601f01602080910402602001604051908101604052809291908181526020018280546119a690613d70565b80156119f35780601f106119c8576101008083540402835291602001916119f3565b820191906000526020600020905b8154815290600101906020018083116119d657829003601f168201915b5050505050815260200160116000898152602001908152602001600020548152602001601560008981526020019081526020016000208054611a3490613d70565b80601f0160208091040260200160405190810160405280929190818152602001828054611a6090613d70565b8015611aad5780601f10611a8257610100808354040283529160200191611aad565b820191906000526020600020905b815481529060010190602001808311611a9057829003601f168201915b505050505081525090806001815401808255809150506001900390600052602060002090600602016000909190919091506000820151816000015560208201518160010155604082015181600201556060820151816003019080519060200190611b18929190612989565b506080820151816004015560a0820151816005019080519060200190611b3f929190612989565b505050600d6000815480929190611b5590613da2565b91905055506013600086815260200190815260200160002060009054906101000a900473ffffffffffffffffffffffffffffffffffffffff16600e60006101000a81548173ffffffffffffffffffffffffffffffffffffffff021916908373ffffffffffffffffffffffffffffffffffffffff1602179055506001601760006013600089815260200190815260200160002060009054906101000a900473ffffffffffffffffffffffffffffffffffffffff1673ffffffffffffffffffffffffffffffffffffffff1673ffffffffffffffffffffffffffffffffffffffff16815260200190815260200160002054611c4d9190613bf5565b601760006013600089815260200190815260200160002060009054906101000a900473ffffffffffffffffffffffffffffffffffffffff1673ffffffffffffffffffffffffffffffffffffffff1673ffffffffffffffffffffffffffffffffffffffff168152602001908152602001600020819055506040518060c00160405280848152602001838152602001828152602001601060008881526020019081526020016000208054611cfe90613d70565b80601f0160208091040260200160405190810160405280929190818152602001828054611d2a90613d70565b8015611d775780601f10611d4c57610100808354040283529160200191611d77565b820191906000526020600020905b815481529060010190602001808311611d5a57829003601f168201915b5050505050815260200160116000888152602001908152602001600020548152602001601560008881526020019081526020016000208054611db890613d70565b80601f0160208091040260200160405190810160405280929190818152602001828054611de490613d70565b8015611e315780601f10611e0657610100808354040283529160200191611e31565b820191906000526020600020905b815481529060010190602001808311611e1457829003601f168201915b5050505050815250601660006013600089815260200190815260200160002060009054906101000a900473ffffffffffffffffffffffffffffffffffffffff1673ffffffffffffffffffffffffffffffffffffffff1673ffffffffffffffffffffffffffffffffffffffff168152602001908152602001600020600060176000601360008b815260200190815260200160002060009054906101000a900473ffffffffffffffffffffffffffffffffffffffff1673ffffffffffffffffffffffffffffffffffffffff1673ffffffffffffffffffffffffffffffffffffffff1681526020019081526020016000205481526020019081526020016000206000820151816000015560208201518160010155604082015181600201556060820151816003019080519060200190611f68929190612989565b506080820151816004015560a0820151816005019080519060200190611f8f929190612989565b50905050611fd06012600087815260200190815260200160002060009054906101000a900473ffffffffffffffffffffffffffffffffffffffff1684612377565b61207583601560008881526020019081526020016000208054611ff290613d70565b80601f016020809104026020016040519081016040528092919081815260200182805461201e90613d70565b801561206b5780601f106120405761010080835404028352916020019161206b565b820191906000526020600020905b81548152906001019060200180831161204e57829003601f168201915b5050505050612395565b5050505050565b8173ffffffffffffffffffffffffffffffffffffffff168373ffffffffffffffffffffffffffffffffffffffff1614156120eb576040517f08c379a00000000000000000000000000000000000000000000000000000000081526004016120e2906138b7565b60405180910390fd5b80600560008573ffffffffffffffffffffffffffffffffffffffff1673ffffffffffffffffffffffffffffffffffffffff16815260200190815260200160002060008473ffffffffffffffffffffffffffffffffffffffff1673ffffffffffffffffffffffffffffffffffffffff16815260200190815260200160002060006101000a81548160ff0219169083151502179055508173ffffffffffffffffffffffffffffffffffffffff168373ffffffffffffffffffffffffffffffffffffffff167f17307eab39ab6107e8899845ad3d59bd9653f200f220920489ca2b5937696c31836040516121dc9190613791565b60405180910390a3505050565b6121f4848484611547565b61220084848484612409565b61223f576040517f08c379a000000000000000000000000000000000000000000000000000000000815260040161223690613857565b60405180910390fd5b50505050565b606060405180602001604052806000815250905090565b60606122678261133c565b6122a6576040517f08c379a000000000000000000000000000000000000000000000000000000000815260040161229d90613a17565b60405180910390fd5b60006122b0612245565b905060008151116122d057604051806020016040528060008152506122fb565b806122da846125a0565b6040516020016122eb9291906136c8565b6040516020818303038152906040525b915050919050565b505050565b60008484848460405160200161232194939291906137f0565b6040516020818303038152906040528051906020012060001c9050949350505050565b6000828260405160200161235992919061369c565b60405160208183030381529060405280519060200120905092915050565b61239182826040518060200160405280600081525061274d565b5050565b61239e8261133c565b6123dd576040517f08c379a00000000000000000000000000000000000000000000000000000000081526004016123d490613977565b60405180910390fd5b80600660008481526020019081526020016000209080519060200190612404929190612989565b505050565b600061242a8473ffffffffffffffffffffffffffffffffffffffff166127a8565b15612593578373ffffffffffffffffffffffffffffffffffffffff1663150b7a026124536113a8565b8786866040518563ffffffff1660e01b81526004016124759493929190613707565b602060405180830381600087803b15801561248f57600080fd5b505af19250505080156124c057506040513d601f19601f820116820180604052508101906124bd9190612dd9565b60015b612543573d80600081146124f0576040519150601f19603f3d011682016040523d82523d6000602084013e6124f5565b606091505b5060008151141561253b576040517f08c379a000000000000000000000000000000000000000000000000000000000815260040161253290613857565b60405180910390fd5b805181602001fd5b63150b7a0260e01b7bffffffffffffffffffffffffffffffffffffffffffffffffffffffff1916817bffffffffffffffffffffffffffffffffffffffffffffffffffffffff191614915050612598565b600190505b949350505050565b606060008214156125e8576040518060400160405280600181526020017f30000000000000000000000000000000000000000000000000000000000000008152509050612748565b600082905060005b6000821461261a57808061260390613da2565b915050600a826126139190613c4b565b91506125f0565b60008167ffffffffffffffff81111561265c577f4e487b7100000000000000000000000000000000000000000000000000000000600052604160045260246000fd5b6040519080825280601f01601f19166020018201604052801561268e5781602001600182028036833780820191505090505b5090505b60008514612741576001826126a79190613c7c565b9150600a856126b69190613dff565b60306126c29190613bf5565b60f81b8183815181106126fe577f4e487b7100000000000000000000000000000000000000000000000000000000600052603260045260246000fd5b60200101907effffffffffffffffffffffffffffffffffffffffffffffffffffffffffffff1916908160001a905350600a8561273a9190613c4b565b9450612692565b8093505050505b919050565b61275783836127bb565b6127646000848484612409565b6127a3576040517f08c379a000000000000000000000000000000000000000000000000000000000815260040161279a90613857565b60405180910390fd5b505050565b600080823b905060008111915050919050565b600073ffffffffffffffffffffffffffffffffffffffff168273ffffffffffffffffffffffffffffffffffffffff16141561282b576040517f08c379a000000000000000000000000000000000000000000000000000000000815260040161282290613997565b60405180910390fd5b6128348161133c565b15612874576040517f08c379a000000000000000000000000000000000000000000000000000000000815260040161286b90613877565b60405180910390fd5b61288060008383612303565b6001600360008473ffffffffffffffffffffffffffffffffffffffff1673ffffffffffffffffffffffffffffffffffffffff16815260200190815260200160002060008282546128d09190613bf5565b92505081905550816002600083815260200190815260200160002060006101000a81548173ffffffffffffffffffffffffffffffffffffffff021916908373ffffffffffffffffffffffffffffffffffffffff160217905550808273ffffffffffffffffffffffffffffffffffffffff16600073ffffffffffffffffffffffffffffffffffffffff167fddf252ad1be2c89b69c2b068fc378daa952ba7f163c4a11628f55a4df523b3ef60405160405180910390a45050565b82805461299590613d70565b90600052602060002090601f0160209004810192826129b757600085556129fe565b82601f106129d057805160ff19168380011785556129fe565b828001600101855582156129fe579182015b828111156129fd5782518255916020019190600101906129e2565b5b509050612a0b9190612a0f565b5090565b5b80821115612a28576000816000905550600101612a10565b5090565b6000612a3f612a3a84613b52565b613b21565b905082815260208101848484011115612a5757600080fd5b612a62848285613d2e565b509392505050565b6000612a7d612a7884613b82565b613b21565b905082815260208101848484011115612a9557600080fd5b612aa0848285613d2e565b509392505050565b600081359050612ab781613efd565b92915050565b600081359050612acc81613f14565b92915050565b600081519050612ae181613f14565b92915050565b600081359050612af681613f2b565b92915050565b600081359050612b0b81613f42565b92915050565b600081519050612b2081613f42565b92915050565b600082601f830112612b3757600080fd5b8135612b47848260208601612a2c565b91505092915050565b600082601f830112612b6157600080fd5b8135612b71848260208601612a6a565b91505092915050565b600081359050612b8981613f59565b92915050565b600081519050612b9e81613f59565b92915050565b600060208284031215612bb657600080fd5b6000612bc484828501612aa8565b91505092915050565b60008060408385031215612be057600080fd5b6000612bee85828601612aa8565b9250506020612bff85828601612aa8565b9150509250929050565b600080600060608486031215612c1e57600080fd5b6000612c2c86828701612aa8565b9350506020612c3d86828701612aa8565b9250506040612c4e86828701612b7a565b9150509250925092565b60008060008060808587031215612c6e57600080fd5b6000612c7c87828801612aa8565b9450506020612c8d87828801612aa8565b9350506040612c9e87828801612b7a565b925050606085013567ffffffffffffffff811115612cbb57600080fd5b612cc787828801612b26565b91505092959194509250565b60008060408385031215612ce657600080fd5b6000612cf485828601612aa8565b9250506020612d0585828601612abd565b9150509250929050565b60008060408385031215612d2257600080fd5b6000612d3085828601612aa8565b9250506020612d4185828601612b7a565b9150509250929050565b600060208284031215612d5d57600080fd5b6000612d6b84828501612ad2565b91505092915050565b60008060408385031215612d8757600080fd5b6000612d9585828601612ae7565b9250506020612da685828601612b7a565b9150509250929050565b600060208284031215612dc257600080fd5b6000612dd084828501612afc565b91505092915050565b600060208284031215612deb57600080fd5b6000612df984828501612b11565b91505092915050565b600060208284031215612e1457600080fd5b6000612e2284828501612b7a565b91505092915050565b600060208284031215612e3d57600080fd5b6000612e4b84828501612b8f565b91505092915050565b600080600080600060a08688031215612e6c57600080fd5b6000612e7a88828901612b7a565b955050602086013567ffffffffffffffff811115612e9757600080fd5b612ea388828901612b50565b9450506040612eb488828901612b7a565b9350506060612ec588828901612aa8565b925050608086013567ffffffffffffffff811115612ee257600080fd5b612eee88828901612b50565b9150509295509295909350565b612f0481613cb0565b82525050565b612f1381613cc2565b82525050565b612f2281613cce565b82525050565b612f39612f3482613cce565b613deb565b82525050565b6000612f4a82613bb2565b612f548185613bc8565b9350612f64818560208601613d3d565b612f6d81613eec565b840191505092915050565b6000612f8382613bbd565b612f8d8185613bd9565b9350612f9d818560208601613d3d565b612fa681613eec565b840191505092915050565b6000612fbc82613bbd565b612fc68185613bea565b9350612fd6818560208601613d3d565b80840191505092915050565b6000612fef603283613bd9565b91507f4552433732313a207472616e7366657220746f206e6f6e20455243373231526560008301527f63656976657220696d706c656d656e74657200000000000000000000000000006020830152604082019050919050565b6000613055601c83613bd9565b91507f4552433732313a20746f6b656e20616c7265616479206d696e746564000000006000830152602082019050919050565b6000613095602483613bd9565b91507f4552433732313a207472616e7366657220746f20746865207a65726f2061646460008301527f72657373000000000000000000000000000000000000000000000000000000006020830152604082019050919050565b60006130fb601983613bd9565b91507f4552433732313a20617070726f766520746f2063616c6c6572000000000000006000830152602082019050919050565b600061313b602b83613bd9565b91507f4e6f7420656e6f756768204c494e4b202d2066696c6c20636f6e74726163742060008301527f77697468206661756365740000000000000000000000000000000000000000006020830152604082019050919050565b60006131a1602c83613bd9565b91507f4552433732313a206f70657261746f7220717565727920666f72206e6f6e657860008301527f697374656e7420746f6b656e00000000000000000000000000000000000000006020830152604082019050919050565b6000613207603883613bd9565b91507f4552433732313a20617070726f76652063616c6c6572206973206e6f74206f7760008301527f6e6572206e6f7220617070726f76656420666f7220616c6c00000000000000006020830152604082019050919050565b600061326d602a83613bd9565b91507f4552433732313a2062616c616e636520717565727920666f7220746865207a6560008301527f726f2061646472657373000000000000000000000000000000000000000000006020830152604082019050919050565b60006132d3602983613bd9565b91507f4552433732313a206f776e657220717565727920666f72206e6f6e657869737460008301527f656e7420746f6b656e00000000000000000000000000000000000000000000006020830152604082019050919050565b6000613339602e83613bd9565b91507f45524337323155524953746f726167653a2055524920736574206f66206e6f6e60008301527f6578697374656e7420746f6b656e0000000000000000000000000000000000006020830152604082019050919050565b600061339f602083613bd9565b91507f4552433732313a206d696e7420746f20746865207a65726f20616464726573736000830152602082019050919050565b60006133df603183613bd9565b91507f45524337323155524953746f726167653a2055524920717565727920666f722060008301527f6e6f6e6578697374656e7420746f6b656e0000000000000000000000000000006020830152604082019050919050565b6000613445602c83613bd9565b91507f4552433732313a20617070726f76656420717565727920666f72206e6f6e657860008301527f697374656e7420746f6b656e00000000000000000000000000000000000000006020830152604082019050919050565b60006134ab602983613bd9565b91507f4552433732313a207472616e73666572206f6620746f6b656e2074686174206960008301527f73206e6f74206f776e00000000000000000000000000000000000000000000006020830152604082019050919050565b6000613511602f83613bd9565b91507f4552433732314d657461646174613a2055524920717565727920666f72206e6f60008301527f6e6578697374656e7420746f6b656e00000000000000000000000000000000006020830152604082019050919050565b6000613577601f83613bd9565b91507f4f6e6c7920565246436f6f7264696e61746f722063616e2066756c66696c6c006000830152602082019050919050565b60006135b7602183613bd9565b91507f4552433732313a20617070726f76616c20746f2063757272656e74206f776e6560008301527f72000000000000000000000000000000000000000000000000000000000000006020830152604082019050919050565b600061361d603183613bd9565b91507f4552433732313a207472616e736665722063616c6c6572206973206e6f74206f60008301527f776e6572206e6f7220617070726f7665640000000000000000000000000000006020830152604082019050919050565b61367f81613d24565b82525050565b61369661369182613d24565b613df5565b82525050565b60006136a88285612f28565b6020820191506136b88284613685565b6020820191508190509392505050565b60006136d48285612fb1565b91506136e08284612fb1565b91508190509392505050565b60006020820190506137016000830184612efb565b92915050565b600060808201905061371c6000830187612efb565b6137296020830186612efb565b6137366040830185613676565b81810360608301526137488184612f3f565b905095945050505050565b60006060820190506137686000830186612efb565b6137756020830185613676565b81810360408301526137878184612f3f565b9050949350505050565b60006020820190506137a66000830184612f0a565b92915050565b60006020820190506137c16000830184612f19565b92915050565b60006040820190506137dc6000830185612f19565b6137e96020830184613676565b9392505050565b60006080820190506138056000830187612f19565b6138126020830186613676565b61381f6040830185612efb565b61382c6060830184613676565b95945050505050565b6000602082019050818103600083015261384f8184612f78565b905092915050565b6000602082019050818103600083015261387081612fe2565b9050919050565b6000602082019050818103600083015261389081613048565b9050919050565b600060208201905081810360008301526138b081613088565b9050919050565b600060208201905081810360008301526138d0816130ee565b9050919050565b600060208201905081810360008301526138f08161312e565b9050919050565b6000602082019050818103600083015261391081613194565b9050919050565b60006020820190508181036000830152613930816131fa565b9050919050565b6000602082019050818103600083015261395081613260565b9050919050565b60006020820190508181036000830152613970816132c6565b9050919050565b600060208201905081810360008301526139908161332c565b9050919050565b600060208201905081810360008301526139b081613392565b9050919050565b600060208201905081810360008301526139d0816133d2565b9050919050565b600060208201905081810360008301526139f081613438565b9050919050565b60006020820190508181036000830152613a108161349e565b9050919050565b60006020820190508181036000830152613a3081613504565b9050919050565b60006020820190508181036000830152613a508161356a565b9050919050565b60006020820190508181036000830152613a70816135aa565b9050919050565b60006020820190508181036000830152613a9081613610565b9050919050565b6000602082019050613aac6000830184613676565b92915050565b600060c082019050613ac76000830189613676565b613ad46020830188613676565b613ae16040830187613676565b8181036060830152613af38186612f78565b9050613b026080830185613676565b81810360a0830152613b148184612f78565b9050979650505050505050565b6000604051905081810181811067ffffffffffffffff82111715613b4857613b47613ebd565b5b8060405250919050565b600067ffffffffffffffff821115613b6d57613b6c613ebd565b5b601f19601f8301169050602081019050919050565b600067ffffffffffffffff821115613b9d57613b9c613ebd565b5b601f19601f8301169050602081019050919050565b600081519050919050565b600081519050919050565b600082825260208201905092915050565b600082825260208201905092915050565b600081905092915050565b6000613c0082613d24565b9150613c0b83613d24565b9250827fffffffffffffffffffffffffffffffffffffffffffffffffffffffffffffffff03821115613c4057613c3f613e30565b5b828201905092915050565b6000613c5682613d24565b9150613c6183613d24565b925082613c7157613c70613e5f565b5b828204905092915050565b6000613c8782613d24565b9150613c9283613d24565b925082821015613ca557613ca4613e30565b5b828203905092915050565b6000613cbb82613d04565b9050919050565b60008115159050919050565b6000819050919050565b60007fffffffff0000000000000000000000000000000000000000000000000000000082169050919050565b600073ffffffffffffffffffffffffffffffffffffffff82169050919050565b6000819050919050565b82818337600083830152505050565b60005b83811015613d5b578082015181840152602081019050613d40565b83811115613d6a576000848401525b50505050565b60006002820490506001821680613d8857607f821691505b60208210811415613d9c57613d9b613e8e565b5b50919050565b6000613dad82613d24565b91507fffffffffffffffffffffffffffffffffffffffffffffffffffffffffffffffff821415613de057613ddf613e30565b5b600182019050919050565b6000819050919050565b6000819050919050565b6000613e0a82613d24565b9150613e1583613d24565b925082613e2557613e24613e5f565b5b828206905092915050565b7f4e487b7100000000000000000000000000000000000000000000000000000000600052601160045260246000fd5b7f4e487b7100000000000000000000000000000000000000000000000000000000600052601260045260246000fd5b7f4e487b7100000000000000000000000000000000000000000000000000000000600052602260045260246000fd5b7f4e487b7100000000000000000000000000000000000000000000000000000000600052604160045260246000fd5b6000601f19601f8301169050919050565b613f0681613cb0565b8114613f1157600080fd5b50565b613f1d81613cc2565b8114613f2857600080fd5b50565b613f3481613cce565b8114613f3f57600080fd5b50565b613f4b81613cd8565b8114613f5657600080fd5b50565b613f6281613d24565b8114613f6d57600080fd5b5056fea26469706673582212207cbb66eb262ef57e1936a5664c1422af225a4c19e8d43004e9c09e4058f8569064736f6c63430008000033",
  "immutableReferences": {
    "2089": [
      {
        "length": 32,
        "start": 2211
      },
      {
        "length": 32,
        "start": 6055
      }
    ],
    "2091": [
      {
        "length": 32,
        "start": 3213
      },
      {
        "length": 32,
        "start": 6115
      }
    ]
  },
  "source": "// SPDX-License-Identifier: MIT\npragma solidity ^0.8.0;\n\n// const RINKEBY_VRF_COORDINATOR = '0xb3dCcb4Cf7a26f6cf6B120Cf5A73875B7BBc655B'\n// const RINKEBY_LINKTOKEN = '0x01BE23585060835E02B77ef475b0Cc51aA1e0709'\n// const RINKEBY_KEYHASH = '0x2ed0feb3e7fd2022120aa84fab1945545a9f2ffc9076fd6156fa96eaff4c1311'\n\nimport \"@openzeppelin/contracts/token/ERC721/extensions/ERC721URIStorage.sol\";\nimport \"./link/VRFConsumerBase.sol\";\nimport \"@openzeppelin/contracts/utils/Strings.sol\";\nimport {SafeMath} from \"./utils/SafeMath.sol\";\n\ncontract NFTTrophy is ERC721URIStorage, VRFConsumerBase {\n    using SafeMath for uint256;\n    using Strings for string;\n    \n    bytes32 public keyHash;\n    address public VRFCoordinator;\n    uint256 internal fee;\n    uint256 public randomResult;\n    address public Linktoken;\n    uint256 public tokensCount;\n    address public add;\n\n    struct Trophy {\n        uint256 tokenId;\n        uint256 rarity;\n        uint256 worth;\n        string name;\n        uint256 levelPass;\n        string image;\n    }\n\n    Trophy[] public trophies;\n    // mappings will go here\n    mapping(bytes32 => string) requestToTrophyName;\n    mapping(bytes32 => uint256) requestToLevel;\n    mapping(bytes32 => address) requestToSender;\n    mapping(bytes32 => address) requestAddress;\n    mapping(bytes32 => uint256) requestToTokenId;\n    mapping(bytes32 => string) requestNftURI;\n    mapping(address => mapping(uint256 => Trophy)) public usersNft;\n    mapping(address => uint256) public usersNftCount;\n\n    constructor(\n        address _VRFCoordinator,\n        address _LinkToken,\n        bytes32 _keyHash\n    )\n        public\n        VRFConsumerBase(_VRFCoordinator, _LinkToken)\n        ERC721(\"TrophyChar\", \"TRP\")\n    {\n        VRFCoordinator = _VRFCoordinator;\n        keyHash = _keyHash;\n        Linktoken = _LinkToken;\n        fee = 0.1 * 10**18; // 0.1 LINK\n    }\n\n    function requestNewRandomTrophy(\n        uint256 userProvidedSeed,\n        string memory name,\n        uint256 levelPass,\n        address walletAddress,\n        string memory _tokenURI\n    ) public returns (bytes32) {\n        require(\n            LINK.balanceOf(address(this)) >= fee,\n            \"Not enough LINK - fill contract with faucet\"\n        );\n        bytes32 requestId = requestRandomness(keyHash, fee, userProvidedSeed);\n        requestToTrophyName[requestId] = name;\n        requestToLevel[requestId] = levelPass;\n        requestToSender[requestId] = msg.sender;\n        requestAddress[requestId] = walletAddress;\n        requestNftURI[requestId] = _tokenURI;\n\n        return requestId;\n    }\n\n    function fulfillRandomness(bytes32 requestId, uint256 randomNumber)\n        internal\n        override\n    {\n        //define the NFT\n        uint256 newId = trophies.length;\n        uint256 rarity = (randomNumber % 100);\n        uint256 worth = ((randomNumber % 1000) / 100);\n\n        trophies.push(\n            Trophy(\n                newId,\n                rarity,\n                worth,\n                requestToTrophyName[requestId],\n                requestToLevel[requestId],\n                requestNftURI[requestId]\n            )\n        );\n\n        tokensCount++;\n        add = requestAddress[requestId];\n        usersNftCount[requestAddress[requestId]] =\n            usersNftCount[requestAddress[requestId]] +\n            1;\n\n        usersNft[requestAddress[requestId]][\n            usersNftCount[requestAddress[requestId]]\n        ] = Trophy(\n            newId,\n            rarity,\n            worth,\n            requestToTrophyName[requestId],\n            requestToLevel[requestId],\n            requestNftURI[requestId]\n        );\n\n        //_safeMint(requestToSender[requestId], newId);\n        _safeMint(requestToSender[requestId], newId);\n        _setTokenURI(newId, requestNftURI[requestId]);\n    }\n\n    function sqrt(uint256 x) internal view returns (uint256 y) {\n        uint256 z = (x + 1) / 2;\n        y = x;\n        while (z < y) {\n            y = z;\n            z = (x / z + z) / 2;\n        }\n    }\n}",
  "sourcePath": "/Users/sagarbehara/Work/Dungeon/Collectable-Quest/src/contracts/nftReward.sol",
  "compiler": {
    "name": "solc",
    "version": "0.8.0+commit.c7dfd78e.Emscripten.clang"
  },
  "schemaVersion": "3.4.1",
  "updatedAt": "2021-11-27T22:14:27.356Z",
  "networkType": "ethereum",
  "devdoc": {
    "kind": "dev",
    "methods": {
      "approve(address,uint256)": {
        "details": "See {IERC721-approve}."
      },
      "balanceOf(address)": {
        "details": "See {IERC721-balanceOf}."
      },
      "getApproved(uint256)": {
        "details": "See {IERC721-getApproved}."
      },
      "isApprovedForAll(address,address)": {
        "details": "See {IERC721-isApprovedForAll}."
      },
      "name()": {
        "details": "See {IERC721Metadata-name}."
      },
      "ownerOf(uint256)": {
        "details": "See {IERC721-ownerOf}."
      },
      "safeTransferFrom(address,address,uint256)": {
        "details": "See {IERC721-safeTransferFrom}."
      },
      "safeTransferFrom(address,address,uint256,bytes)": {
        "details": "See {IERC721-safeTransferFrom}."
      },
      "setApprovalForAll(address,bool)": {
        "details": "See {IERC721-setApprovalForAll}."
      },
      "supportsInterface(bytes4)": {
        "details": "See {IERC165-supportsInterface}."
      },
      "symbol()": {
        "details": "See {IERC721Metadata-symbol}."
      },
      "tokenURI(uint256)": {
        "details": "See {IERC721Metadata-tokenURI}."
      },
      "transferFrom(address,address,uint256)": {
        "details": "See {IERC721-transferFrom}."
      }
    },
    "version": 1
  },
  "userdoc": {
    "kind": "user",
    "methods": {},
    "version": 1
  }
}